{
  "_format": "hh-sol-artifact-1",
  "contractName": "TokenBatchTransfer",
  "sourceName": "contracts/TokenBatchTransfer.sol",
  "abi": [
    {
      "inputs": [],
      "stateMutability": "nonpayable",
      "type": "constructor"
    },
    {
      "inputs": [],
      "name": "InvalidInitialization",
      "type": "error"
    },
    {
      "inputs": [],
      "name": "NotInitializing",
      "type": "error"
    },
    {
      "inputs": [
        {
          "internalType": "address",
          "name": "owner",
          "type": "address"
        }
      ],
      "name": "OwnableInvalidOwner",
      "type": "error"
    },
    {
      "inputs": [
        {
          "internalType": "address",
          "name": "account",
          "type": "address"
        }
      ],
      "name": "OwnableUnauthorizedAccount",
      "type": "error"
    },
    {
      "anonymous": false,
      "inputs": [
        {
          "indexed": true,
          "internalType": "address",
          "name": "operator",
          "type": "address"
        },
        {
          "indexed": false,
          "internalType": "uint256",
          "name": "totalAmount",
          "type": "uint256"
        }
      ],
      "name": "BatchTransferNative",
      "type": "event"
    },
    {
      "anonymous": false,
      "inputs": [
        {
          "indexed": false,
          "internalType": "uint64",
          "name": "version",
          "type": "uint64"
        }
      ],
      "name": "Initialized",
      "type": "event"
    },
    {
      "anonymous": false,
      "inputs": [
        {
          "indexed": true,
          "internalType": "address",
          "name": "newOperator",
          "type": "address"
        }
      ],
      "name": "NewOperator",
      "type": "event"
    },
    {
      "anonymous": false,
      "inputs": [
        {
          "indexed": true,
          "internalType": "address",
          "name": "previousOwner",
          "type": "address"
        },
        {
          "indexed": true,
          "internalType": "address",
          "name": "newOwner",
          "type": "address"
        }
      ],
      "name": "OwnershipTransferred",
      "type": "event"
    },
    {
      "anonymous": false,
      "inputs": [
        {
          "indexed": true,
          "internalType": "address",
          "name": "owner",
          "type": "address"
        },
        {
          "indexed": false,
          "internalType": "uint256",
          "name": "amount",
          "type": "uint256"
        }
      ],
      "name": "WithdrawNative",
      "type": "event"
    },
    {
      "anonymous": false,
      "inputs": [
        {
          "indexed": true,
          "internalType": "address",
          "name": "owner",
          "type": "address"
        },
        {
          "indexed": false,
          "internalType": "uint256",
          "name": "stakeAmount",
          "type": "uint256"
        }
      ],
      "name": "WithdrawToken",
      "type": "event"
    },
    {
      "inputs": [
        {
          "internalType": "address[]",
          "name": "tokenHolders",
          "type": "address[]"
        },
        {
          "internalType": "uint256[]",
          "name": "amounts",
          "type": "uint256[]"
        }
      ],
      "name": "batchTransfer",
      "outputs": [],
      "stateMutability": "nonpayable",
      "type": "function"
    },
    {
      "inputs": [
        {
          "internalType": "address[]",
          "name": "recipients",
          "type": "address[]"
        },
        {
          "internalType": "uint256[]",
          "name": "amounts",
          "type": "uint256[]"
        }
      ],
      "name": "batchTransferNative",
      "outputs": [],
      "stateMutability": "nonpayable",
      "type": "function"
    },
    {
      "inputs": [
        {
          "internalType": "address",
          "name": "_token",
          "type": "address"
        }
      ],
      "name": "initialize",
      "outputs": [],
      "stateMutability": "nonpayable",
      "type": "function"
    },
    {
      "inputs": [],
      "name": "owner",
      "outputs": [
        {
          "internalType": "address",
          "name": "",
          "type": "address"
        }
      ],
      "stateMutability": "view",
      "type": "function"
    },
    {
      "inputs": [],
      "name": "renounceOwnership",
      "outputs": [],
      "stateMutability": "nonpayable",
      "type": "function"
    },
    {
      "inputs": [],
      "name": "token",
      "outputs": [
        {
          "internalType": "contract IERC20",
          "name": "",
          "type": "address"
        }
      ],
      "stateMutability": "view",
      "type": "function"
    },
    {
      "inputs": [],
      "name": "transferOperator",
      "outputs": [
        {
          "internalType": "address",
          "name": "",
          "type": "address"
        }
      ],
      "stateMutability": "view",
      "type": "function"
    },
    {
      "inputs": [
        {
          "internalType": "address",
          "name": "newOwner",
          "type": "address"
        }
      ],
      "name": "transferOwnership",
      "outputs": [],
      "stateMutability": "nonpayable",
      "type": "function"
    },
    {
      "inputs": [
        {
          "internalType": "address",
          "name": "newOperator",
          "type": "address"
        }
      ],
      "name": "updateOperator",
      "outputs": [],
      "stateMutability": "nonpayable",
      "type": "function"
    },
    {
      "inputs": [
        {
          "internalType": "uint256",
          "name": "value",
          "type": "uint256"
        }
      ],
      "name": "withdrawNative",
      "outputs": [],
      "stateMutability": "nonpayable",
      "type": "function"
    },
    {
      "inputs": [
        {
          "internalType": "uint256",
          "name": "value",
          "type": "uint256"
        }
      ],
      "name": "withdrawToken",
      "outputs": [],
      "stateMutability": "nonpayable",
      "type": "function"
    },
    {
      "stateMutability": "payable",
      "type": "receive"
    }
  ],
  "bytecode": "0x608060405234801561001057600080fd5b5061001961001e565b6100d0565b7ff0c57e16840df040f15088dc2f81fe391c3923bec73e23a9662efc9c229c6a00805468010000000000000000900460ff161561006e5760405163f92ee8a960e01b815260040160405180910390fd5b80546001600160401b03908116146100cd5780546001600160401b0319166001600160401b0390811782556040519081527fc7f505b2f371ae2175ee4913f4499e1f2633a7b5936321eed1cdaeb6115181d29060200160405180910390a15b50565b610e37806100df6000396000f3fe6080604052600436106100a05760003560e01c80638da5cb5b116100645780638da5cb5b14610143578063ac7475ed14610198578063c4d66de8146101b8578063d0835895146101d8578063f2fde38b146101f8578063fc0c546a1461021857600080fd5b806350baa622146100ac57806366f658e9146100ce578063715018a6146100ee57806384276d811461010357806388d695b21461012357600080fd5b366100a757005b600080fd5b3480156100b857600080fd5b506100cc6100c7366004610c22565b610238565b005b3480156100da57600080fd5b506100cc6100e9366004610c87565b610440565b3480156100fa57600080fd5b506100cc610620565b34801561010f57600080fd5b506100cc61011e366004610c22565b610634565b34801561012f57600080fd5b506100cc61013e366004610c87565b61070e565b34801561014f57600080fd5b507f9016d09d72d40fdae2fd8ceac6b6234c7706214fd39c1cd1e609a0528c199300546001600160a01b03165b6040516001600160a01b03909116815260200160405180910390f35b3480156101a457600080fd5b506100cc6101b3366004610cf3565b6108d5565b3480156101c457600080fd5b506100cc6101d3366004610cf3565b61097d565b3480156101e457600080fd5b5060015461017c906001600160a01b031681565b34801561020457600080fd5b506100cc610213366004610cf3565b610ab6565b34801561022457600080fd5b5060005461017c906001600160a01b031681565b6001546001600160a01b0316331461026b5760405162461bcd60e51b815260040161026290610d23565b60405180910390fd5b6000546040516370a0823160e01b815230600482015282916001600160a01b0316906370a0823190602401602060405180830381865afa1580156102b3573d6000803e3d6000fd5b505050506040513d601f19601f820116820180604052508101906102d79190610d68565b10156103305760405162461bcd60e51b815260206004820152602260248201527f4e6f7420656e6f7567682062616c616e636520696e2074686520636f6e74726160448201526118dd60f21b6064820152608401610262565b60005460405163a9059cbb60e01b8152336004820152602481018390526001600160a01b039091169063a9059cbb906044016020604051808303816000875af1158015610381573d6000803e3d6000fd5b505050506040513d601f19601f820116820180604052508101906103a59190610d81565b6104075760405162461bcd60e51b815260206004820152602d60248201527f556e61626c6520746f207472616e7366657220746f6b656e20746f207468652060448201526c1bdddb995c881858d8dbdd5b9d609a1b6064820152608401610262565b60405181815233907f992ee874049a42cae0757a765cd7f641b6028cc35c3478bde8330bf417c3a7a9906020015b60405180910390a250565b6001546001600160a01b0316331461046a5760405162461bcd60e51b815260040161026290610d23565b8281146104b95760405162461bcd60e51b815260206004820181905260248201527f417272617973206d7573742068617665207468652073616d65206c656e6774686044820152606401610262565b6000805b848110156104fd578383828181106104d7576104d7610da3565b90506020020135826104e99190610dcf565b9150806104f581610de8565b9150506104bd565b508047101561054e5760405162461bcd60e51b815260206004820152601960248201527f4e6f7420456e6f756768206e61746976652062616c616e6365000000000000006044820152606401610262565b60005b848110156105e35785858281811061056b5761056b610da3565b90506020020160208101906105809190610cf3565b6001600160a01b03166108fc85858481811061059e5761059e610da3565b905060200201359081150290604051600060405180830381858888f193505050501580156105d0573d6000803e3d6000fd5b50806105db81610de8565b915050610551565b5060405181815233907f393d36800739fa2ed425fcf511fa52059c31fb1f4c8c7afca76b10c68a9bbf029060200160405180910390a25050505050565b610628610af4565b6106326000610b4f565b565b6001546001600160a01b0316331461065e5760405162461bcd60e51b815260040161026290610d23565b804710156106ae5760405162461bcd60e51b815260206004820152601960248201527f4e6f7420656e6f756768206e61746976652062616c616e6365000000000000006044820152606401610262565b604051339082156108fc029083906000818181858888f193505050501580156106db573d6000803e3d6000fd5b5060405181815233907fde93db11f7aedf7cb3be22dc4d80e7790ab4b59a30aae83e86ac8326245542c590602001610435565b6001546001600160a01b031633146107385760405162461bcd60e51b815260040161026290610d23565b8281146107935760405162461bcd60e51b815260206004820152602360248201527f417267756d656e7473206d7573742068617665207468652073616d65206c656e6044820152620cee8d60eb1b6064820152608401610262565b60005b838110156108ce576000546001600160a01b031663a9059cbb8686848181106107c1576107c1610da3565b90506020020160208101906107d69190610cf3565b8585858181106107e8576107e8610da3565b6040516001600160e01b031960e087901b1681526001600160a01b03909416600485015260200291909101356024830152506044016020604051808303816000875af115801561083c573d6000803e3d6000fd5b505050506040513d601f19601f820116820180604052508101906108609190610d81565b6108bc5760405162461bcd60e51b815260206004820152602760248201527f556e61626c6520746f207472616e7366657220746f6b656e20746f20746865206044820152661858d8dbdd5b9d60ca1b6064820152608401610262565b806108c681610de8565b915050610796565b5050505050565b6108dd610af4565b6001600160a01b0381166109335760405162461bcd60e51b815260206004820152601860248201527f496e76616c6964206f70657261746f72206164647265737300000000000000006044820152606401610262565b600180546001600160a01b0319166001600160a01b0383169081179091556040517fda12ee837e6978172aaf54b16145ffe08414fd8710092ef033c71b8eb6ec189a90600090a250565b7ff0c57e16840df040f15088dc2f81fe391c3923bec73e23a9662efc9c229c6a008054600160401b810460ff16159067ffffffffffffffff166000811580156109c35750825b905060008267ffffffffffffffff1660011480156109e05750303b155b9050811580156109ee575080155b15610a0c5760405163f92ee8a960e01b815260040160405180910390fd5b845467ffffffffffffffff191660011785558315610a3657845460ff60401b1916600160401b1785555b610a3f33610bc0565b600080546001600160a01b0388166001600160a01b03199182161790915560018054909116331790558315610aae57845460ff60401b19168555604051600181527fc7f505b2f371ae2175ee4913f4499e1f2633a7b5936321eed1cdaeb6115181d29060200160405180910390a15b505050505050565b610abe610af4565b6001600160a01b038116610ae857604051631e4fbdf760e01b815260006004820152602401610262565b610af181610b4f565b50565b33610b267f9016d09d72d40fdae2fd8ceac6b6234c7706214fd39c1cd1e609a0528c199300546001600160a01b031690565b6001600160a01b0316146106325760405163118cdaa760e01b8152336004820152602401610262565b7f9016d09d72d40fdae2fd8ceac6b6234c7706214fd39c1cd1e609a0528c19930080546001600160a01b031981166001600160a01b03848116918217845560405192169182907f8be0079c531659141344cd1fd0a4f28419497f9722a3daafe3b4186f6b6457e090600090a3505050565b610bc8610bd1565b610af181610c1a565b7ff0c57e16840df040f15088dc2f81fe391c3923bec73e23a9662efc9c229c6a0054600160401b900460ff1661063257604051631afcd79f60e31b815260040160405180910390fd5b610abe610bd1565b600060208284031215610c3457600080fd5b5035919050565b60008083601f840112610c4d57600080fd5b50813567ffffffffffffffff811115610c6557600080fd5b6020830191508360208260051b8501011115610c8057600080fd5b9250929050565b60008060008060408587031215610c9d57600080fd5b843567ffffffffffffffff80821115610cb557600080fd5b610cc188838901610c3b565b90965094506020870135915080821115610cda57600080fd5b50610ce787828801610c3b565b95989497509550505050565b600060208284031215610d0557600080fd5b81356001600160a01b0381168114610d1c57600080fd5b9392505050565b60208082526025908201527f4f6e6c79206f70657261746f722063616e2063616c6c20746869732066756e636040820152643a34b7b71760d91b606082015260800190565b600060208284031215610d7a57600080fd5b5051919050565b600060208284031215610d9357600080fd5b81518015158114610d1c57600080fd5b634e487b7160e01b600052603260045260246000fd5b634e487b7160e01b600052601160045260246000fd5b80820180821115610de257610de2610db9565b92915050565b600060018201610dfa57610dfa610db9565b506001019056fea264697066735822122078dc4f388a8c928f85563a2d94b4704b88c6fa49dc365fd84bb009e92fc57a0064736f6c63430008140033",
  "linkReferences": {},
  "deployedLinkReferences": {}
}